{
  "_format": "hh-sol-artifact-1",
  "contractName": "Simplesafe",
  "sourceName": "contracts/Simplesafe.sol",
  "abi": [
    {
      "inputs": [],
      "stateMutability": "payable",
      "type": "constructor"
    },
    {
      "inputs": [
        {
          "internalType": "address",
          "name": "token",
          "type": "address"
        }
      ],
      "name": "balanceOf",
      "outputs": [
        {
          "internalType": "uint256",
          "name": "",
          "type": "uint256"
        }
      ],
      "stateMutability": "view",
      "type": "function"
    },
    {
      "inputs": [
        {
          "internalType": "address",
          "name": "",
          "type": "address"
        },
        {
          "internalType": "address",
          "name": "",
          "type": "address"
        }
      ],
      "name": "balances",
      "outputs": [
        {
          "internalType": "uint256",
          "name": "",
          "type": "uint256"
        }
      ],
      "stateMutability": "view",
      "type": "function"
    },
    {
      "inputs": [
        {
          "internalType": "address",
          "name": "token",
          "type": "address"
        },
        {
          "internalType": "uint256",
          "name": "amount",
          "type": "uint256"
        }
      ],
      "name": "deposit",
      "outputs": [],
      "stateMutability": "nonpayable",
      "type": "function"
    },
    {
      "inputs": [],
      "name": "owner",
      "outputs": [
        {
          "internalType": "address payable",
          "name": "",
          "type": "address"
        }
      ],
      "stateMutability": "view",
      "type": "function"
    },
    {
      "inputs": [
        {
          "internalType": "address",
          "name": "token",
          "type": "address"
        },
        {
          "internalType": "uint256",
          "name": "amount",
          "type": "uint256"
        }
      ],
      "name": "withdraw",
      "outputs": [],
      "stateMutability": "nonpayable",
      "type": "function"
    }
  ],
  "bytecode": "0x608060405233600160006101000a81548173ffffffffffffffffffffffffffffffffffffffff021916908373ffffffffffffffffffffffffffffffffffffffff160217905550610b87806100546000396000f3fe608060405234801561001057600080fd5b50600436106100575760003560e01c806347e7ef241461005c57806370a08231146100785780638da5cb5b146100a8578063c23f001f146100c6578063f3fef3a3146100f6575b600080fd5b610076600480360381019061007191906106f4565b610112565b005b610092600480360381019061008d919061068f565b6102eb565b60405161009f91906109cd565b60405180910390f35b6100b0610370565b6040516100bd91906108d2565b60405180910390f35b6100e060048036038101906100db91906106b8565b610396565b6040516100ed91906109cd565b60405180910390f35b610110600480360381019061010b91906106f4565b6103bb565b005b60008111610155576040517f08c379a000000000000000000000000000000000000000000000000000000000815260040161014c9061094d565b60405180910390fd5b600073ffffffffffffffffffffffffffffffffffffffff168273ffffffffffffffffffffffffffffffffffffffff1614156101c5576040517f08c379a00000000000000000000000000000000000000000000000000000000081526004016101bc9061096d565b60405180910390fd5b8173ffffffffffffffffffffffffffffffffffffffff166323b872dd3330846040518463ffffffff1660e01b8152600401610202939291906108ed565b602060405180830381600087803b15801561021c57600080fd5b505af1158015610230573d6000803e3d6000fd5b505050506040513d601f19601f820116820180604052508101906102549190610730565b50806000803373ffffffffffffffffffffffffffffffffffffffff1673ffffffffffffffffffffffffffffffffffffffff16815260200190815260200160002060008473ffffffffffffffffffffffffffffffffffffffff1673ffffffffffffffffffffffffffffffffffffffff16815260200190815260200160002060008282546102e091906109f9565b925050819055505050565b60008060003373ffffffffffffffffffffffffffffffffffffffff1673ffffffffffffffffffffffffffffffffffffffff16815260200190815260200160002060008373ffffffffffffffffffffffffffffffffffffffff1673ffffffffffffffffffffffffffffffffffffffff168152602001908152602001600020549050919050565b600160009054906101000a900473ffffffffffffffffffffffffffffffffffffffff1681565b6000602052816000526040600020602052806000526040600020600091509150505481565b600081116103fe576040517f08c379a00000000000000000000000000000000000000000000000000000000081526004016103f59061098d565b60405180910390fd5b806000803373ffffffffffffffffffffffffffffffffffffffff1673ffffffffffffffffffffffffffffffffffffffff16815260200190815260200160002060008473ffffffffffffffffffffffffffffffffffffffff1673ffffffffffffffffffffffffffffffffffffffff1681526020019081526020016000205410156104bc576040517f08c379a00000000000000000000000000000000000000000000000000000000081526004016104b3906109ad565b60405180910390fd5b600073ffffffffffffffffffffffffffffffffffffffff168273ffffffffffffffffffffffffffffffffffffffff16141561052c576040517f08c379a00000000000000000000000000000000000000000000000000000000081526004016105239061096d565b60405180910390fd5b806000803373ffffffffffffffffffffffffffffffffffffffff1673ffffffffffffffffffffffffffffffffffffffff16815260200190815260200160002060008473ffffffffffffffffffffffffffffffffffffffff1673ffffffffffffffffffffffffffffffffffffffff16815260200190815260200160002060008282546105b79190610a4f565b925050819055508173ffffffffffffffffffffffffffffffffffffffff1663a9059cbb33836040518363ffffffff1660e01b81526004016105f9929190610924565b602060405180830381600087803b15801561061357600080fd5b505af1158015610627573d6000803e3d6000fd5b505050506040513d601f19601f8201168201806040525081019061064b9190610730565b505050565b60008135905061065f81610b0c565b92915050565b60008151905061067481610b23565b92915050565b60008135905061068981610b3a565b92915050565b6000602082840312156106a157600080fd5b60006106af84828501610650565b91505092915050565b600080604083850312156106cb57600080fd5b60006106d985828601610650565b92505060206106ea85828601610650565b9150509250929050565b6000806040838503121561070757600080fd5b600061071585828601610650565b92505060206107268582860161067a565b9150509250929050565b60006020828403121561074257600080fd5b600061075084828501610665565b91505092915050565b61076281610a95565b82525050565b61077181610a83565b82525050565b60006107846025836109e8565b91507f4465706f73697420616d6f756e74206d7573742062652067726561746572207460008301527f68616e20300000000000000000000000000000000000000000000000000000006020830152604082019050919050565b60006107ea601b836109e8565b91507f546f6b656e2061646472657373206d7573742062652076616c696400000000006000830152602082019050919050565b600061082a6028836109e8565b91507f5769746864726177616c20616d6f756e74206d7573742062652067726561746560008301527f72207468616e20300000000000000000000000000000000000000000000000006020830152604082019050919050565b60006108906015836109e8565b91507f52756e206f7574206f6620796f7572206d6f6e657900000000000000000000006000830152602082019050919050565b6108cc81610ad3565b82525050565b60006020820190506108e76000830184610759565b92915050565b60006060820190506109026000830186610768565b61090f6020830185610768565b61091c60408301846108c3565b949350505050565b60006040820190506109396000830185610768565b61094660208301846108c3565b9392505050565b6000602082019050818103600083015261096681610777565b9050919050565b60006020820190508181036000830152610986816107dd565b9050919050565b600060208201905081810360008301526109a68161081d565b9050919050565b600060208201905081810360008301526109c681610883565b9050919050565b60006020820190506109e260008301846108c3565b92915050565b600082825260208201905092915050565b6000610a0482610ad3565b9150610a0f83610ad3565b9250827fffffffffffffffffffffffffffffffffffffffffffffffffffffffffffffffff03821115610a4457610a43610add565b5b828201905092915050565b6000610a5a82610ad3565b9150610a6583610ad3565b925082821015610a7857610a77610add565b5b828203905092915050565b6000610a8e82610ab3565b9050919050565b6000610aa082610ab3565b9050919050565b60008115159050919050565b600073ffffffffffffffffffffffffffffffffffffffff82169050919050565b6000819050919050565b7f4e487b7100000000000000000000000000000000000000000000000000000000600052601160045260246000fd5b610b1581610a83565b8114610b2057600080fd5b50565b610b2c81610aa7565b8114610b3757600080fd5b50565b610b4381610ad3565b8114610b4e57600080fd5b5056fea26469706673582212204f08018f9fa04496c858d848ea15d18907b7c5c462bb412bbd737aa26688eb2064736f6c63430008000033",
  "linkReferences": {},
  "deployedLinkReferences": {}
}