{
  "_format": "hh-sol-artifact-1",
  "contractName": "myToken",
  "sourceName": "contracts/MyToken.sol",
  "abi": [
    {
      "inputs": [],
      "stateMutability": "nonpayable",
      "type": "constructor"
    },
    {
      "anonymous": false,
      "inputs": [
        {
          "indexed": true,
          "internalType": "address",
          "name": "owner",
          "type": "address"
        },
        {
          "indexed": true,
          "internalType": "address",
          "name": "spender",
          "type": "address"
        },
        {
          "indexed": false,
          "internalType": "uint256",
          "name": "value",
          "type": "uint256"
        }
      ],
      "name": "Approval",
      "type": "event"
    },
    {
      "anonymous": false,
      "inputs": [
        {
          "indexed": true,
          "internalType": "address",
          "name": "from",
          "type": "address"
        },
        {
          "indexed": true,
          "internalType": "address",
          "name": "to",
          "type": "address"
        },
        {
          "indexed": false,
          "internalType": "uint256",
          "name": "value",
          "type": "uint256"
        }
      ],
      "name": "Transfer",
      "type": "event"
    },
    {
      "inputs": [
        {
          "internalType": "address",
          "name": "owner",
          "type": "address"
        },
        {
          "internalType": "address",
          "name": "spender",
          "type": "address"
        }
      ],
      "name": "allowance",
      "outputs": [
        {
          "internalType": "uint256",
          "name": "",
          "type": "uint256"
        }
      ],
      "stateMutability": "view",
      "type": "function"
    },
    {
      "inputs": [
        {
          "internalType": "address",
          "name": "spender",
          "type": "address"
        },
        {
          "internalType": "uint256",
          "name": "amount",
          "type": "uint256"
        }
      ],
      "name": "approve",
      "outputs": [
        {
          "internalType": "bool",
          "name": "",
          "type": "bool"
        }
      ],
      "stateMutability": "nonpayable",
      "type": "function"
    },
    {
      "inputs": [
        {
          "internalType": "address",
          "name": "account",
          "type": "address"
        }
      ],
      "name": "balanceOf",
      "outputs": [
        {
          "internalType": "uint256",
          "name": "",
          "type": "uint256"
        }
      ],
      "stateMutability": "view",
      "type": "function"
    },
    {
      "inputs": [],
      "name": "decimals",
      "outputs": [
        {
          "internalType": "uint8",
          "name": "",
          "type": "uint8"
        }
      ],
      "stateMutability": "view",
      "type": "function"
    },
    {
      "inputs": [
        {
          "internalType": "address",
          "name": "spender",
          "type": "address"
        },
        {
          "internalType": "uint256",
          "name": "subtractedValue",
          "type": "uint256"
        }
      ],
      "name": "decreaseAllowance",
      "outputs": [
        {
          "internalType": "bool",
          "name": "",
          "type": "bool"
        }
      ],
      "stateMutability": "nonpayable",
      "type": "function"
    },
    {
      "inputs": [
        {
          "internalType": "address",
          "name": "spender",
          "type": "address"
        },
        {
          "internalType": "uint256",
          "name": "addedValue",
          "type": "uint256"
        }
      ],
      "name": "increaseAllowance",
      "outputs": [
        {
          "internalType": "bool",
          "name": "",
          "type": "bool"
        }
      ],
      "stateMutability": "nonpayable",
      "type": "function"
    },
    {
      "inputs": [
        {
          "internalType": "uint256",
          "name": "amount",
          "type": "uint256"
        }
      ],
      "name": "mint",
      "outputs": [],
      "stateMutability": "nonpayable",
      "type": "function"
    },
    {
      "inputs": [],
      "name": "name",
      "outputs": [
        {
          "internalType": "string",
          "name": "",
          "type": "string"
        }
      ],
      "stateMutability": "view",
      "type": "function"
    },
    {
      "inputs": [],
      "name": "owner",
      "outputs": [
        {
          "internalType": "address",
          "name": "",
          "type": "address"
        }
      ],
      "stateMutability": "view",
      "type": "function"
    },
    {
      "inputs": [],
      "name": "symbol",
      "outputs": [
        {
          "internalType": "string",
          "name": "",
          "type": "string"
        }
      ],
      "stateMutability": "view",
      "type": "function"
    },
    {
      "inputs": [],
      "name": "totalSupply",
      "outputs": [
        {
          "internalType": "uint256",
          "name": "",
          "type": "uint256"
        }
      ],
      "stateMutability": "view",
      "type": "function"
    },
    {
      "inputs": [
        {
          "internalType": "address",
          "name": "to",
          "type": "address"
        },
        {
          "internalType": "uint256",
          "name": "amount",
          "type": "uint256"
        }
      ],
      "name": "transfer",
      "outputs": [
        {
          "internalType": "bool",
          "name": "",
          "type": "bool"
        }
      ],
      "stateMutability": "nonpayable",
      "type": "function"
    },
    {
      "inputs": [
        {
          "internalType": "address",
          "name": "from",
          "type": "address"
        },
        {
          "internalType": "address",
          "name": "to",
          "type": "address"
        },
        {
          "internalType": "uint256",
          "name": "amount",
          "type": "uint256"
        }
      ],
      "name": "transferFrom",
      "outputs": [
        {
          "internalType": "bool",
          "name": "",
          "type": "bool"
        }
      ],
      "stateMutability": "nonpayable",
      "type": "function"
    }
  ],
  "bytecode": "0x60806040523480156200001157600080fd5b506040518060400160405280600781526020017f6d79546f6b656e000000000000000000000000000000000000000000000000008152506040518060400160405280600381526020017f4943450000000000000000000000000000000000000000000000000000000000815250816003908051906020019062000096929190620002b9565b508060049080519060200190620000af929190620002b9565b505050620000f133620000c76200013860201b60201c565b600a620000d59190620004c4565b620e0a42620000e5919062000601565b6200014160201b60201c565b33600560006101000a81548173ffffffffffffffffffffffffffffffffffffffff021916908373ffffffffffffffffffffffffffffffffffffffff1602179055506200071a565b60006012905090565b600073ffffffffffffffffffffffffffffffffffffffff168273ffffffffffffffffffffffffffffffffffffffff161415620001b4576040517f08c379a0000000000000000000000000000000000000000000000000000000008152600401620001ab90620003bc565b60405180910390fd5b620001c860008383620002af60201b60201c565b8060026000828254620001dc91906200040c565b92505081905550806000808473ffffffffffffffffffffffffffffffffffffffff1673ffffffffffffffffffffffffffffffffffffffff168152602001908152602001600020600082825401925050819055508173ffffffffffffffffffffffffffffffffffffffff16600073ffffffffffffffffffffffffffffffffffffffff167fddf252ad1be2c89b69c2b068fc378daa952ba7f163c4a11628f55a4df523b3ef836040516200028f9190620003de565b60405180910390a3620002ab60008383620002b460201b60201c565b5050565b505050565b505050565b828054620002c79062000679565b90600052602060002090601f016020900481019282620002eb576000855562000337565b82601f106200030657805160ff191683800117855562000337565b8280016001018555821562000337579182015b828111156200033657825182559160200191906001019062000319565b5b5090506200034691906200034a565b5090565b5b80821115620003655760008160009055506001016200034b565b5090565b600062000378601f83620003fb565b91507f45524332303a206d696e7420746f20746865207a65726f2061646472657373006000830152602082019050919050565b620003b68162000662565b82525050565b60006020820190508181036000830152620003d78162000369565b9050919050565b6000602082019050620003f56000830184620003ab565b92915050565b600082825260208201905092915050565b6000620004198262000662565b9150620004268362000662565b9250827fffffffffffffffffffffffffffffffffffffffffffffffffffffffffffffffff038211156200045e576200045d620006af565b5b828201905092915050565b6000808291508390505b6001851115620004bb57808604811115620004935762000492620006af565b5b6001851615620004a35780820291505b8081029050620004b3856200070d565b945062000473565b94509492505050565b6000620004d18262000662565b9150620004de836200066c565b92506200050d7fffffffffffffffffffffffffffffffffffffffffffffffffffffffffffffffff848462000515565b905092915050565b600082620005275760019050620005fa565b81620005375760009050620005fa565b81600181146200055057600281146200055b5762000591565b6001915050620005fa565b60ff84111562000570576200056f620006af565b5b8360020a9150848211156200058a5762000589620006af565b5b50620005fa565b5060208310610133831016604e8410600b8410161715620005cb5782820a905083811115620005c557620005c4620006af565b5b620005fa565b620005da848484600162000469565b92509050818404811115620005f457620005f3620006af565b5b81810290505b9392505050565b60006200060e8262000662565b91506200061b8362000662565b9250817fffffffffffffffffffffffffffffffffffffffffffffffffffffffffffffffff0483118215151615620006575762000656620006af565b5b828202905092915050565b6000819050919050565b600060ff82169050919050565b600060028204905060018216806200069257607f821691505b60208210811415620006a957620006a8620006de565b5b50919050565b7f4e487b7100000000000000000000000000000000000000000000000000000000600052601160045260246000fd5b7f4e487b7100000000000000000000000000000000000000000000000000000000600052602260045260246000fd5b60008160011c9050919050565b611493806200072a6000396000f3fe608060405234801561001057600080fd5b50600436106100cf5760003560e01c806370a082311161008c578063a0712d6811610066578063a0712d681461022a578063a457c2d714610246578063a9059cbb14610276578063dd62ed3e146102a6576100cf565b806370a08231146101be5780638da5cb5b146101ee57806395d89b411461020c576100cf565b806306fdde03146100d4578063095ea7b3146100f257806318160ddd1461012257806323b872dd14610140578063313ce56714610170578063395093511461018e575b600080fd5b6100dc6102d6565b6040516100e9919061113c565b60405180910390f35b61010c60048036038101906101079190610d48565b610368565b6040516101199190611121565b60405180910390f35b61012a61038b565b604051610137919061125e565b60405180910390f35b61015a60048036038101906101559190610cf9565b610395565b6040516101679190611121565b60405180910390f35b6101786103c4565b6040516101859190611279565b60405180910390f35b6101a860048036038101906101a39190610d48565b6103cd565b6040516101b59190611121565b60405180910390f35b6101d860048036038101906101d39190610c94565b610404565b6040516101e5919061125e565b60405180910390f35b6101f661044c565b6040516102039190611106565b60405180910390f35b610214610472565b604051610221919061113c565b60405180910390f35b610244600480360381019061023f9190610d84565b610504565b005b610260600480360381019061025b9190610d48565b610511565b60405161026d9190611121565b60405180910390f35b610290600480360381019061028b9190610d48565b610588565b60405161029d9190611121565b60405180910390f35b6102c060048036038101906102bb9190610cbd565b6105ab565b6040516102cd919061125e565b60405180910390f35b6060600380546102e59061138e565b80601f01602080910402602001604051908101604052809291908181526020018280546103119061138e565b801561035e5780601f106103335761010080835404028352916020019161035e565b820191906000526020600020905b81548152906001019060200180831161034157829003601f168201915b5050505050905090565b600080610373610632565b905061038081858561063a565b600191505092915050565b6000600254905090565b6000806103a0610632565b90506103ad858285610805565b6103b8858585610891565b60019150509392505050565b60006012905090565b6000806103d8610632565b90506103f98185856103ea85896105ab565b6103f491906112b0565b61063a565b600191505092915050565b60008060008373ffffffffffffffffffffffffffffffffffffffff1673ffffffffffffffffffffffffffffffffffffffff168152602001908152602001600020549050919050565b600560009054906101000a900473ffffffffffffffffffffffffffffffffffffffff1681565b6060600480546104819061138e565b80601f01602080910402602001604051908101604052809291908181526020018280546104ad9061138e565b80156104fa5780601f106104cf576101008083540402835291602001916104fa565b820191906000526020600020905b8154815290600101906020018083116104dd57829003601f168201915b5050505050905090565b61050e3382610b09565b50565b60008061051c610632565b9050600061052a82866105ab565b90508381101561056f576040517f08c379a00000000000000000000000000000000000000000000000000000000081526004016105669061121e565b60405180910390fd5b61057c828686840361063a565b60019250505092915050565b600080610593610632565b90506105a0818585610891565b600191505092915050565b6000600160008473ffffffffffffffffffffffffffffffffffffffff1673ffffffffffffffffffffffffffffffffffffffff16815260200190815260200160002060008373ffffffffffffffffffffffffffffffffffffffff1673ffffffffffffffffffffffffffffffffffffffff16815260200190815260200160002054905092915050565b600033905090565b600073ffffffffffffffffffffffffffffffffffffffff168373ffffffffffffffffffffffffffffffffffffffff1614156106aa576040517f08c379a00000000000000000000000000000000000000000000000000000000081526004016106a1906111fe565b60405180910390fd5b600073ffffffffffffffffffffffffffffffffffffffff168273ffffffffffffffffffffffffffffffffffffffff16141561071a576040517f08c379a00000000000000000000000000000000000000000000000000000000081526004016107119061117e565b60405180910390fd5b80600160008573ffffffffffffffffffffffffffffffffffffffff1673ffffffffffffffffffffffffffffffffffffffff16815260200190815260200160002060008473ffffffffffffffffffffffffffffffffffffffff1673ffffffffffffffffffffffffffffffffffffffff168152602001908152602001600020819055508173ffffffffffffffffffffffffffffffffffffffff168373ffffffffffffffffffffffffffffffffffffffff167f8c5be1e5ebec7d5bd14f71427d1e84f3dd0314c0f7b2291e5b200ac8c7c3b925836040516107f8919061125e565b60405180910390a3505050565b600061081184846105ab565b90507fffffffffffffffffffffffffffffffffffffffffffffffffffffffffffffffff811461088b578181101561087d576040517f08c379a00000000000000000000000000000000000000000000000000000000081526004016108749061119e565b60405180910390fd5b61088a848484840361063a565b5b50505050565b600073ffffffffffffffffffffffffffffffffffffffff168373ffffffffffffffffffffffffffffffffffffffff161415610901576040517f08c379a00000000000000000000000000000000000000000000000000000000081526004016108f8906111de565b60405180910390fd5b600073ffffffffffffffffffffffffffffffffffffffff168273ffffffffffffffffffffffffffffffffffffffff161415610971576040517f08c379a00000000000000000000000000000000000000000000000000000000081526004016109689061115e565b60405180910390fd5b61097c838383610c60565b60008060008573ffffffffffffffffffffffffffffffffffffffff1673ffffffffffffffffffffffffffffffffffffffff16815260200190815260200160002054905081811015610a02576040517f08c379a00000000000000000000000000000000000000000000000000000000081526004016109f9906111be565b60405180910390fd5b8181036000808673ffffffffffffffffffffffffffffffffffffffff1673ffffffffffffffffffffffffffffffffffffffff16815260200190815260200160002081905550816000808573ffffffffffffffffffffffffffffffffffffffff1673ffffffffffffffffffffffffffffffffffffffff168152602001908152602001600020600082825401925050819055508273ffffffffffffffffffffffffffffffffffffffff168473ffffffffffffffffffffffffffffffffffffffff167fddf252ad1be2c89b69c2b068fc378daa952ba7f163c4a11628f55a4df523b3ef84604051610af0919061125e565b60405180910390a3610b03848484610c65565b50505050565b600073ffffffffffffffffffffffffffffffffffffffff168273ffffffffffffffffffffffffffffffffffffffff161415610b79576040517f08c379a0000000000000000000000000000000000000000000000000000000008152600401610b709061123e565b60405180910390fd5b610b8560008383610c60565b8060026000828254610b9791906112b0565b92505081905550806000808473ffffffffffffffffffffffffffffffffffffffff1673ffffffffffffffffffffffffffffffffffffffff168152602001908152602001600020600082825401925050819055508173ffffffffffffffffffffffffffffffffffffffff16600073ffffffffffffffffffffffffffffffffffffffff167fddf252ad1be2c89b69c2b068fc378daa952ba7f163c4a11628f55a4df523b3ef83604051610c48919061125e565b60405180910390a3610c5c60008383610c65565b5050565b505050565b505050565b600081359050610c798161142f565b92915050565b600081359050610c8e81611446565b92915050565b600060208284031215610ca657600080fd5b6000610cb484828501610c6a565b91505092915050565b60008060408385031215610cd057600080fd5b6000610cde85828601610c6a565b9250506020610cef85828601610c6a565b9150509250929050565b600080600060608486031215610d0e57600080fd5b6000610d1c86828701610c6a565b9350506020610d2d86828701610c6a565b9250506040610d3e86828701610c7f565b9150509250925092565b60008060408385031215610d5b57600080fd5b6000610d6985828601610c6a565b9250506020610d7a85828601610c7f565b9150509250929050565b600060208284031215610d9657600080fd5b6000610da484828501610c7f565b91505092915050565b610db681611306565b82525050565b610dc581611318565b82525050565b6000610dd682611294565b610de0818561129f565b9350610df081856020860161135b565b610df98161141e565b840191505092915050565b6000610e1160238361129f565b91507f45524332303a207472616e7366657220746f20746865207a65726f206164647260008301527f65737300000000000000000000000000000000000000000000000000000000006020830152604082019050919050565b6000610e7760228361129f565b91507f45524332303a20617070726f766520746f20746865207a65726f20616464726560008301527f73730000000000000000000000000000000000000000000000000000000000006020830152604082019050919050565b6000610edd601d8361129f565b91507f45524332303a20696e73756666696369656e7420616c6c6f77616e63650000006000830152602082019050919050565b6000610f1d60268361129f565b91507f45524332303a207472616e7366657220616d6f756e742065786365656473206260008301527f616c616e636500000000000000000000000000000000000000000000000000006020830152604082019050919050565b6000610f8360258361129f565b91507f45524332303a207472616e736665722066726f6d20746865207a65726f20616460008301527f64726573730000000000000000000000000000000000000000000000000000006020830152604082019050919050565b6000610fe960248361129f565b91507f45524332303a20617070726f76652066726f6d20746865207a65726f2061646460008301527f72657373000000000000000000000000000000000000000000000000000000006020830152604082019050919050565b600061104f60258361129f565b91507f45524332303a2064656372656173656420616c6c6f77616e63652062656c6f7760008301527f207a65726f0000000000000000000000000000000000000000000000000000006020830152604082019050919050565b60006110b5601f8361129f565b91507f45524332303a206d696e7420746f20746865207a65726f2061646472657373006000830152602082019050919050565b6110f181611344565b82525050565b6111008161134e565b82525050565b600060208201905061111b6000830184610dad565b92915050565b60006020820190506111366000830184610dbc565b92915050565b600060208201905081810360008301526111568184610dcb565b905092915050565b6000602082019050818103600083015261117781610e04565b9050919050565b6000602082019050818103600083015261119781610e6a565b9050919050565b600060208201905081810360008301526111b781610ed0565b9050919050565b600060208201905081810360008301526111d781610f10565b9050919050565b600060208201905081810360008301526111f781610f76565b9050919050565b6000602082019050818103600083015261121781610fdc565b9050919050565b6000602082019050818103600083015261123781611042565b9050919050565b60006020820190508181036000830152611257816110a8565b9050919050565b600060208201905061127360008301846110e8565b92915050565b600060208201905061128e60008301846110f7565b92915050565b600081519050919050565b600082825260208201905092915050565b60006112bb82611344565b91506112c683611344565b9250827fffffffffffffffffffffffffffffffffffffffffffffffffffffffffffffffff038211156112fb576112fa6113c0565b5b828201905092915050565b600061131182611324565b9050919050565b60008115159050919050565b600073ffffffffffffffffffffffffffffffffffffffff82169050919050565b6000819050919050565b600060ff82169050919050565b60005b8381101561137957808201518184015260208101905061135e565b83811115611388576000848401525b50505050565b600060028204905060018216806113a657607f821691505b602082108114156113ba576113b96113ef565b5b50919050565b7f4e487b7100000000000000000000000000000000000000000000000000000000600052601160045260246000fd5b7f4e487b7100000000000000000000000000000000000000000000000000000000600052602260045260246000fd5b6000601f19601f8301169050919050565b61143881611306565b811461144357600080fd5b50565b61144f81611344565b811461145a57600080fd5b5056fea26469706673582212203c8eb37844d4141c8336ad71f0af1e4e1ac8ef1a29e787f2101e652c5c85e9cb64736f6c63430008000033",
  "linkReferences": {},
  "deployedLinkReferences": {}
}